:100000000C9462000C94E1050C94BA050C948A00DF
:100010000C948A000C948A000C948A000C948A0038
:100020000C948A000C948A000C948A000C948A0028
:100030000C948A000C948A000C948A000C948A0018
:100040000C9470050C948A000C943E050C941805D1
:100050000C948A000C948A000C948A000C948A00F8
:100060000C9408060C948A0000000000250028006B
:100070002B000000000023002600290000000008DB
:10008000000201000003040700000000000000005F
:1000900000000000240027002A00010204081020AC
:1000A000408001020408102001020408102004040A
:1000B0000404040404040202020202020303030310
:1000C0000303230711241FBECFEFD8E0DEBFCDBF4F
:1000D00011E0A0E0B1E0E4E0F3E102C005900D9290
:1000E000A437B107D9F722E0A4E7B1E001C01D921F
:1000F000A83CB207E1F710E0C2E6D0E004C02197C7
:10010000FE010E947A09C136D107C9F70E946B0728
:100110000C9480090C940000AF92BF92CF92DF92B2
:10012000EF92FF920F931F93CF93DF936C017B01AC
:100130008B01040F151FEB015E01AE18BF08C0173D
:10014000D10759F06991D601ED91FC910190F081B0
:10015000E02DC6010995892B79F7C501DF91CF9173
:100160001F910F91FF90EF90DF90CF90BF90AF90D5
:100170000895FC01538D448D252F30E0842F90E0AD
:10018000821B930B541710F0CF9608950197089592
:10019000FC01918D828D981761F0A28DAE0FBF2F5B
:1001A000B11D5D968C91928D9F5F9F73928F90E0B1
:1001B00008958FEF9FEF0895FC01918D828D981720
:1001C00031F0828DE80FF11D858D90E008958FEF5D
:1001D0009FEF0895FC01918D228D892F90E0805C26
:1001E0009F4F821B91098F739927089583E192E0B5
:1001F0000E94EA0021E0892B09F420E0822F089573
:1002000080E090E0892B29F00E94F60081110C9487
:1002100000000895FC01A48DA80FB92FB11DA35AA9
:10022000BF4F2C91848D90E001968F739927848F16
:10023000A689B7892C93A089B1898C918370806439
:100240008C93938D848D981306C00288F389E02DDA
:1002500080818F7D80830895EF92FF920F931F938B
:10026000CF93DF93EC0181E0888F9B8D8C8D981369
:100270001AC0E889F989808185FF15C09FB7F89475
:10028000EE89FF896083E889F989808183708064C1
:1002900080839FBF81E090E0DF91CF911F910F910C
:1002A000FF90EF900895F62E0B8D10E00F5F1F4F1B
:1002B0000F731127E02E8C8D8E110CC00FB607FC2A
:1002C000FACFE889F989808185FFF5CFCE010E94B8
:1002D0000A01F1CFEB8DEC0FFD2FF11DE35AFF4F1B
:1002E000F0829FB7F8940B8FEA89FB898081806246
:1002F000CFCFCF93DF93EC01888D8823B9F0AA8903
:10030000BB89E889F9898C9185FD03C0808186FDD0
:100310000DC00FB607FCF7CF8C9185FFF2CF80811F
:1003200085FFEDCFCE010E940A01E9CFDF91CF9189
:100330000895833081F028F4813099F08230A9F05B
:1003400008958730A9F08830C9F08430B1F48091E5
:1003500080008F7D03C0809180008F778093800024
:10036000089584B58F7784BD089584B58F7DFBCFC4
:100370008091B0008F778093B00008958091B00095
:100380008F7DF9CFCF93DF93282F30E0F901E45828
:10039000FF4F8491F901E656FF4FD491F901E255E0
:1003A000FF4FC491CC23A1F081110E949901EC2F41
:1003B000F0E0EE0FFF1FEE58FF4FA591B491EC91C6
:1003C000ED2381E090E009F480E0DF91CF91089582
:1003D00080E090E0FACF1F93CF93DF93282F30E097
:1003E000F901E458FF4F8491F901E656FF4FD4918B
:1003F000F901E255FF4FC491CC23A9F0162F8111CA
:100400000E949901EC2FF0E0EE0FFF1FE859FF4F1B
:10041000A591B4918FB7F894EC91111108C0D095C3
:10042000DE23DC938FBFDF91CF911F910895DE2BE8
:10043000F8CFCF93DF9390E0FC01E656FF4F249175
:1004400082559F4FFC0184918823D1F090E0880F62
:10045000991FFC01E057FF4FA591B491FC01E859A9
:10046000FF4FC591D49161110EC09FB7F8948C9144
:10047000E22FE0958E238C932881E223E8839FBFAF
:10048000DF91CF9108958FB7F894EC91E22BEC9324
:100490008FBFF6CF3FB7F89480910E0290910F0274
:1004A000A0911002B091110226B5A89B05C02F3F64
:1004B00019F00196A11DB11D3FBFBA2FA92F982F8A
:1004C0008827BC01CD01620F711D811D911D42E085
:1004D000660F771F881F991F4A95D1F708958F924D
:1004E0009F92AF92BF92CF92DF92EF92FF924B0119
:1004F0005C010E944A026B017C010E944A026C1955
:100500007D098E099F09683E734081059105A8F316
:1005100021E0821A9108A108B10888EEC80E83E094
:10052000D81EE11CF11C81149104A104B10429F727
:10053000FF90EF90DF90CF90BF90AF909F908F9003
:10054000089508951F93CF93DF93C1E0C0939E0158
:10055000882399F1D091B8001091BA008091BC0025
:100560008A7B8093BC0060E082E10E94EB0160E046
:1005700083E10E94EB011092E301C093E501109228
:10058000E40161E082E10E94EB0161E083E10E940D
:10059000EB018091B9008E7F8093B9008091B90002
:1005A0008D7F8093B90088E48093B80085E48093C0
:1005B000BC001093BA00D093B800DF91CF911F9187
:1005C00008952091BF01260F3327331F21323105B3
:1005D000ECF42091E301FC0190E080E0243069F02C
:1005E00082E00895A091BF012191AC0141565E4F78
:1005F000A40FB52FB11D2C930196861798F3809107
:10060000BF01680F6093BF0180E0089581E0089505
:1006100008958FEF9FEF08958FEF9FEF08958091DA
:10062000980190E09195819591090895CF92DF927C
:10063000EF92FF920F931F93CF93DF937C01CB0137
:100640008A0120919701222389F0EB016B01C40EEE
:10065000D51ECC15DD0569F06991D701ED91FC91AE
:100660000190F081E02DC7010995F3CF642F0E941E
:10067000E102C801DF91CF911F910F91FF90EF90A0
:10068000DF90CF900895CF93DF931F92CDB7DEB761
:100690006983209197012223F9F02091960120325D
:1006A00058F021E030E0FC013383228390E080E0C9
:1006B0000F90DF91CF91089580919501E82FF0E0A0
:1006C000EB58FE4F998190838F5F809395018093C3
:1006D000960181E090E0ECCF61E0CE0101960E94AE
:1006E000E102F7CFCF92DF92EF92FF920F931F9329
:1006F000CF93DF93FC01C48121E020939701C09345
:10070000740110929501109296018385682B80EBFD
:1007100092E00E944303D0919601D13208F092C03A
:100720000E944A026B017C018091E301811165C046
:1007300082E08093E30181E08093E5018FEF809375
:10074000E20110920702D0930602A5E7B1E0E6EEBF
:10075000F1E080E0D81385C0109208028091080271
:10076000CC0FC82BC09308028091E401813009F0BE
:100770007CC01092E4010E944A026B017C018091CE
:1007800008028093BB0080919A0190919B01A091F7
:100790009C01B0919D01892B8A2B8B2B99F00E9493
:1007A0004A0200919A0110919B0120919C01309185
:1007B0009D016C197D098E099F09061717072807E7
:1007C0003907E0F18091BC0083FDD9CF85EC80939F
:1007D000BC000E944A026B017C018091E3018230DF
:1007E00009F445C08091E2018F3F61F18091E201FF
:1007F000803241F18091E20125C080919A0190916F
:100800009B01A0919C01B0919D01892B8A2B8B2B80
:1008100009F48ACF0E944A0200919A0110919B012B
:1008200020919C0130919D016C197D098E099F09D1
:10083000061717072807390708F076CF8091990126
:100840000E94A202109295011092960110929701B7
:10085000DF91CF911F910F91FF90EF90DF90CF909C
:1008600008959D9191938F5F75CF85EEB0CF809164
:100870009A0190919B01A0919C01B0919D01892BBF
:100880008A2B8B2B09F4A9CF0E944A0200919A016E
:1008900010919B0120919C0130919D016C197D0963
:1008A0008E099F09061717072807390708F095CF03
:1008B000C5CF089590E080E008958EBD00000DB48E
:1008C00007FEFDCF8EB508950F931F93CF938C0134
:1008D000C62F0E9472036C2F6460C8010E947203CD
:1008E0006C2F6B7FC8010E94720383EC90E001972C
:1008F000F1F7CF911F910F9108950F931F93CF930D
:10090000DF938C01D62FC42F607F642B0E94640478
:1009100080E1D89FB00111246C2BC801DF91CF91E9
:100920001F910F910C94640440E061E08CEB92E025
:100930000E947D048BE39FE10197F1F7089540E069
:1009400060E88CEB92E00C947D0441E00E947D0411
:1009500081E090E00895FB0101900020E9F73197D4
:10096000AF01461B570BDC01ED91FC910280F38136
:10097000E02D0994CF93DF93BC0183E192E00E94C4
:10098000AB04EC0164E371E083E192E00E94AB040C
:100990008C0F9D1FDF91CF91089587E391E00E9416
:1009A000BA0486E491E00E94BA0483B78E7F83BFC5
:1009B000E89881EA92E09093010180930001089504
:1009C00085ED8093BC0080919A0190919B01A0914C
:1009D0009C01B0919D010796A11DB11D23E0B69524
:1009E000A795979587952A95D1F72091BC0024FD6E
:1009F00003C01092E301089540919A0150919B0128
:100A000060919C0170919D01452B462B472B69F30A
:100A10000097A105B10541F025E32A95F1F7000003
:100A20000197A109B109E1CF809199010C94A2022B
:100A30001F920F920FB60F9211242F933F934F9353
:100A40005F936F937F938F939F93AF93BF93EF9336
:100A5000FF9383E192E00E940A01FF91EF91BF9121
:100A6000AF919F918F917F916F915F914F913F9146
:100A70002F910F900FBE0F901F9018951F920F92FD
:100A80000FB60F9211242F938F939F93EF93FF93A1
:100A9000E0912302F09124028081E0912902F091FB
:100AA0002A0282FD1BC0908180912C028F5F8F7380
:100AB00020912D02821741F0E0912C02F0E0ED5ED2
:100AC000FD4F958F80932C02FF91EF919F918F9115
:100AD0002F910F900FBE0F901F9018958081F4CF2B
:100AE0001F920F920FB60F9211242F933F938F9363
:100AF0009F93AF93BF9380910A0290910B02A091B4
:100B00000C02B0910D023091090223E0230F2D3722
:100B100058F50196A11DB11D2093090280930A0288
:100B200090930B02A0930C02B0930D0280910E02E1
:100B300090910F02A0911002B09111020196A11D97
:100B4000B11D80930E0290930F02A0931002B093F8
:100B50001102BF91AF919F918F913F912F910F9073
:100B60000FBE0F901F90189526E8230F0296A11D27
:100B7000B11DD2CF1F920F920FB60F9211242F9357
:100B80003F934F935F936F937F938F939F93AF9315
:100B9000BF93EF93FF93E0910201F0910301099558
:100BA000FF91EF91BF91AF919F918F917F916F9145
:100BB0005F914F913F912F910F900FBE0F901F901B
:100BC00018951F920F920FB60F9211242F933F93F7
:100BD0004F935F936F937F938F939F93AF93BF9345
:100BE000EF93FF93E0910001F09101010995FF91CE
:100BF000EF91BF91AF919F918F917F916F915F9195
:100C00004F913F912F910F900FBE0F901F9018950D
:100C10001F920F920FB60F9211242F933F934F9371
:100C20005F936F937F938F939F93AF93BF93EF9354
:100C3000FF938091B900887F803609F44AC0F0F5AF
:100C4000883209F4A5C018F5803109F499C0B8F4C8
:100C5000882309F4F5C0883009F492C0FF91EF9120
:100C6000BF91AF919F918F917F916F915F914F91C4
:100C70003F912F910F900FBE0F901F9018958831C4
:100C800009F486C0803251F78093E20114C08034A9
:100C900009F49BC040F48033B9F38833F9F68093AC
:100CA000E20185ECAEC0803509F483C0883509F4D3
:100CB00094C0883499F60E94E004D0CF883909F4B2
:100CC0008AC038F5883729F050F4883611F080371B
:100CD00029F683E08093E3011092E10155C0883842
:100CE00009F479C0803919F0803809F0B7CF8091C4
:100CF000E101803208F06FC0E091E10181E08E0FE8
:100D00008093E1018091BB00F0E0EF53FE4F8083C0
:100D10003BC0803B39F0D0F4803A09F477C0883A80
:100D200009F09CCF84E08093E3011092C0011092FF
:100D3000BF01F0E0E0E009958091BF0181110FC093
:100D400081E08093BF0110929F0109C0803C09F4AB
:100D5000A8CF883C09F4A5CF883B09F07FCFE0916C
:100D6000C00181E08E0F8093C001F0E0E156FE4F9C
:100D700080818093BB009091C0018091BF0129C008
:100D8000809108028093BB0085EC8093BC0066CF05
:100D90009091070280910602981758F5E09107029A
:100DA00081E08E0F80930702F0E0EA51FE4F8081D0
:100DB000E9CFE091070281E08E0F809307028091D6
:100DC000BB00F0E0EA51FE4F8083909107028091D2
:100DD00006029817C8F285E8D8CFE091070281E0B3
:100DE0008E0F809307028091BB00F0E0EA51FE4F26
:100DF00080838091E50181115ECF81E08093E401E1
:100E000084EA8093BC001092E30128CF85EC8093A4
:100E1000BC001092E3018091E101803230F4E09156
:100E2000E101F0E0EF53FE4F10826091E10170E0CC
:100E300081EC91E0F0E0E0E009951092E1010ECF45
:100E40001092E20138CFE3E1F2E01382128288EEE1
:100E500093E0A0E0B0E084839583A683B78328E085
:100E600031E03183208325EC30E03587248724EC82
:100E700030E03787268720EC30E0318B208B21EC67
:100E800030E0338B228B22EC30E0358B248B26EC48
:100E900030E0378B268B118E128E138E148EE0EB82
:100EA000F2E01382128284839583A683B7838AE15A
:100EB00091E091838083ECEBF2E0138212828CE26A
:100EC00091E09183808387E2848380E1818782E05F
:100ED000828713860895CF93DF93CDB7DEB7A197AE
:100EE0000FB6F894DEBF0FBECDBF789484B5826094
:100EF00084BD84B5816084BD85B5826085BD85B5BE
:100F0000816085BD80916E00816080936E0010923B
:100F100081008091810082608093810080918100B6
:100F20008160809381008091800081608093800047
:100F30008091B10084608093B1008091B0008160A5
:100F40008093B00080917A00846080937A008091D1
:100F50007A00826080937A0080917A008160809329
:100F60007A0080917A00806880937A001092C100A4
:100F7000E0912302F091240282E08083E0911F023D
:100F8000F09120021082E0912102F091220280E192
:100F9000808310922B02E0912702F091280286E0D4
:100FA0008083E0912502F091260280818061808318
:100FB000E0912502F0912602808188608083E09193
:100FC0002502F0912602808180688083E0912502CD
:100FD000F091260280818F7D808360E089E00E940D
:100FE000190260E082E00E9419028EE491E00E9402
:100FF000BA041FB7F89480911202811127C0E8EB60
:10100000F0E08491E4EAF0E09491E82FF0E0EE0F54
:10101000FF1FE057FF4FA591B491EC91E92321F414
:1010200061E08AE00E94EB0161E08AE00E9419021F
:101030008CB580618CBD8CB580648CBD61E08DE029
:101040000E94190261E08BE00E9419028091120255
:101050008F5F809312021FBF8CB58C7F81608CBD27
:101060008DB581608DBD61E08AE00E94EB018091C9
:10107000C10288608093C10282E0F82EF092C4021F
:1010800062E370E080E090E00E946F026091C7022E
:101090008CEB92E00E94720368EE73E080E090E0D7
:1010A0000E946F0260E38CEB92E00E9464040BE408
:1010B00016E4C8010197F1F760E38CEB92E00E941F
:1010C0006404C8010197F1F760E38CEB92E00E94A1
:1010D000640483E592E00197F1F760E28CEB92E023
:1010E0000E9464046091C102606240E08CEB92E077
:1010F0000E947D0484E08093C20240E06CE08CEBAF
:1011000092E00E947D040E949404F092C30240E0A9
:1011100066E08CEB92E00E947D0440E062E08CEBA4
:1011200092E00E947D048BE39FE10197F1F79DEC33
:10113000C92E94E0D92E2AE0422E512C612C712C1C
:1011400030E0232E30E0332E60E08AE00E94EB0195
:1011500080E00E945D0461E08AE00E94EB010E9451
:1011600094040E949F0465E571E08CEB92E00E947C
:10117000AB0483B7816083BF8EE591E00E94BA041F
:10118000D0920101C0920001809169008C7F809310
:101190006900E89A83B7817F846083BF68EE73E05B
:1011A00080E090E00E946F02889582E00E94C20178
:1011B000892B09F06DC060E08AE00E94EB0189E0B4
:1011C0000E94C2017C014C01990FAA08BB08B7FE1E
:1011D00049C06DE283E192E00E942C01222733276F
:1011E000A901281939094A095B0919A28E010F5D65
:1011F0001F4FCA01B901A30192010E945809605D05
:10120000F80162938F01211531054105510589F7D8
:101210000115110529F0B80183E192E00E94AB04A9
:1012200064E371E083E192E00E94AB0480E0EA9421
:10123000EF2859F40E9494040E949F0467E371E030
:101240008CEB92E00E94AB0481E00E945D0461E0BF
:101250008AE00E94EB0164EF71E080E090E00E9480
:101260006F02A3CFA501940119A28E010F5D1F4F3C
:10127000CA01B901A30192010E945809605DF801F9
:1012800062938F01211531054105510589F7C0CFC2
:1012900082E691E00E94BA042114310409F454CF8B
:1012A0000E94F600882309F44FCF0E9400004CCF23
:1012B000A1E21A2EAA1BBB1BFD010DC0AA1FBB1F5A
:1012C000EE1FFF1FA217B307E407F50720F0A21BCC
:1012D000B30BE40BF50B661F771F881F991F1A9439
:1012E00069F760957095809590959B01AC01BD0163
:1012F000CF010895EE0FFF1F0590F491E02D0994A2
:04130000F894FFCF8F
:10130400A102A102000000002C018C00B9007901A7
:10131400EA00C800DC0000000000430316035A047E
:1013240008030F030C03090300000000A5048C004C
:101334005A0459040D0A00534D4F4B45204445545B
:1013440045435445440021414C45525421004D61CC
:101354007374657200414C4C2053414645005A7ADF
:101364007A00536D6F6B6520456C696D696E6174AD
:0413740065640000AC
:00000001FF
