:100000000C9463000C94A2040C947B040C948B005D
:100010000C948B000C948B000C948B000C947D033F
:100020000C948B000C948B000C948B000C94C904E2
:100030000C948B000C948B000C948B000C948B0014
:100040000C9431040C9485050C94FF030C94D90393
:100050000C948B000C948B000C948B000C948B00F4
:100060000C948B000C948B000000000024002700EF
:100070002A000000000023002600290000000008DC
:10008000000201000003040700000000000000005F
:10009000010204081020408001020408102001021F
:1000A0000408102000000000250028002B00040494
:1000B0000404040404040202020202020303030310
:1000C000030302009C0511241FBECFEFD8E0DEBF62
:1000D000CDBF11E0A0E0B1E0EAEFF1E102C0059090
:1000E0000D92AC34B107D9F722E0ACE4B1E001C025
:1000F0001D92AF32B207E1F710E0C3E6D0E004C0D2
:100100002197FE010E94F508C236D107C9F70E9467
:10011000F9050C94FB080C9400008F929F92AF920B
:10012000BF92FF920F931F93CF93DF93F0902C0217
:100130002BE02F1508F44CC020912E0208E512E0A8
:10014000021B110927FD1395000F111F000F111F2E
:1001500020912D02C8E8D0E0C21BD10927FDD3951C
:10016000CC0FDD1FCC0FDD1F4E010D2E000CAA0899
:10017000BB089801012E000C440B550B28193909B6
:100180004A095B09DC010E94B00824EB30E040E042
:1001900050E00E948608820E931EA41EB51E8C1687
:1001A0009D062CF0E801801691060CF4E4012297DC
:1001B000CC0FDD1F2FB7F8948F2D90E0FC01EE0FD0
:1001C000FF1FE80FF91FE95FFD4FD283C1832FBFE7
:1001D000DF91CF911F910F91FF90BF90AF909F90B3
:1001E0008F900895AF92BF92CF92DF92EF92FF92DD
:1001F0000F931F93CF93DF936C017B018B01040F4F
:10020000151FEB015E01AE18BF08C017D10759F0EA
:100210006991D601ED91FC910190F081E02DC6012C
:100220000995892B79F7C501DF91CF911F910F9126
:10023000FF90EF90DF90CF90BF90AF900895FC01BA
:10024000538D448D252F30E0842F90E0821B930B3B
:10025000541710F0CF96089501970895FC01918DE1
:10026000828D981761F0A28DAE0FBF2FB11D5D96E4
:100270008C91928D9F5F9F73928F90E008958FEF86
:100280009FEF0895FC01918D828D981731F0828D3A
:10029000E80FF11D858D90E008958FEF9FEF089591
:1002A000FC01918D228D892F90E0805C9F4F821BF5
:1002B00091098F73992708958AE691E00E94500171
:1002C00021E0892B09F420E0822F089580E090E05E
:1002D000892B29F00E945C0181110C940000089583
:1002E000FC01A48DA80FB92FB11DA35ABF4F2C91AB
:1002F000848D90E001968F739927848FA689B789A2
:100300002C93A089B1898C91837080648C93938D98
:10031000848D981306C00288F389E02D80818F7D3B
:1003200080830895EF92FF920F931F93CF93DF93F3
:10033000EC0181E0888F9B8D8C8D98131AC0E88921
:10034000F989808185FF15C09FB7F894EE89FF89F0
:100350006083E889F98980818370806480839FBF8E
:1003600081E090E0DF91CF911F910F91FF90EF908E
:100370000895F62E0B8D10E00F5F1F4F0F7311279E
:10038000E02E8C8D8E110CC00FB607FCFACFE889D9
:10039000F989808185FFF5CFCE010E947001F1CFF0
:1003A000EB8DEC0FFD2FF11DE35AFF4FF0829FB74D
:1003B000F8940B8FEA89FB8980818062CFCFCF933D
:1003C000DF93EC01888D8823B9F0AA89BB89E8897D
:1003D000F9898C9185FD03C0808186FD0DC00FB623
:1003E00007FCF7CF8C9185FFF2CF808185FFEDCFA1
:1003F000CE010E947001E9CFDF91CF910895833043
:1004000081F028F4813099F08230A9F00895873086
:10041000A9F08830C9F08430B1F4809180008F7DDC
:1004200003C0809180008F7780938000089584B509
:100430008F7784BD089584B58F7DFBCF8091B00008
:100440008F778093B00008958091B0008F7DF9CFB1
:100450001F93CF93DF93282F30E0F901E458FF4F2B
:100460008491F901E057FF4FD491F901E255FF4F14
:10047000C491CC23A9F0162F81110E94FF01EC2F0B
:10048000F0E0EE0FFF1FEC55FF4FA591B4918FB731
:10049000F894EC91111108C0D095DE23DC938FBF46
:1004A000DF91CF911F910895DE2BF8CF9091040139
:1004B00089130BC0E2ECF0E0E4919FEF909304010C
:1004C000E13049F028F0E23061F060E00C9428025D
:1004D00010926E00FACF90916F009D7F90936F0005
:1004E000F4CF909170009D7F9093700091E0909375
:1004F000B0009091B100987F94609093B1001092F9
:10050000B300E3CFCF93DF9390E0FC01E057FF4FC0
:10051000249182559F4FFC0184918823D1F090E073
:10052000880F991FFC01E859FF4FA591B491FC0178
:10053000EC55FF4FC591D49161110EC09FB7F8944F
:100540008C91E22FE0958E238C932881E223E8831F
:100550009FBFDF91CF9108958FB7F894EC91E22B74
:10056000EC938FBFF6CF3FB7F894809152019091F2
:100570005301A0915401B091550126B5A89B05C027
:100580002F3F19F00196A11DB11D3FBFBA2FA92F12
:10059000982F8827BC01CD01620F711D811D911D0F
:1005A00042E0660F771F881F991F4A95D1F708957B
:1005B0008F929F92AF92BF92CF92DF92EF92FF9273
:1005C0004B015C010E94B3026B017C010E94B302EB
:1005D0006C197D098E099F09683E7340810591055C
:1005E000A8F321E0821A9108A108B10888EEC80E8C
:1005F00083E0D81EE11CF11C81149104A104B10414
:1006000029F7FF90EF90DF90CF90BF90AF909F9031
:100610008F9008950895FC0101900020E9F731972B
:10062000AF01481B590BBC018AE691E00C94F20023
:100630008F929F92AF92BF920F931F93CF93DF93AE
:10064000CDB7DEB7A1970FB6F894DEBF0FBECDBF12
:1006500019A2423008F44AE08E010F5D1F4F842E2C
:10066000912CB12CA12CA50194010E94B808E62F71
:10067000B901CA01EA30F4F4E05DD801EE938D01CE
:10068000232B242B252B79F790E080E0109719F08D
:10069000CD010E940B03A1960FB6F894DEBF0FBEEA
:1006A000CDBFDF91CF911F910F91BF90AF909F90E1
:1006B0008F900895E95CE1CFCF93DF930E940B0305
:1006C000EC0187E191E00E940B038C0F9D1FDF91ED
:1006D000CF9108958AE191E00E945C0389E291E064
:1006E0000E945C0383B78E7F83BFE8988AE093E023
:1006F000909301018093000108951F920F920FB60D
:100700000F9211242F933F934F935F936F937F9397
:100710008F939F93AF93BF93EF93FF9380915B0170
:1007200090915C01A0915D01B0915E01892B8A2BB3
:100730008B2BD1F190915601E0915701F091580126
:1007400080818927808380915B0190915C01A091D9
:100750005D01B0915E01181619061A061B069CF47D
:1007600080915B0190915C01A0915D01B0915E016F
:100770000197A109B10980935B0190935C01A0935B
:100780005D01B0935E01FF91EF91BF91AF919F9199
:100790008F917F916F915F914F913F912F910F902A
:1007A0000FBE0F901F901895809104010E94560271
:1007B000EACF1F920F920FB60F9211242F933F93FF
:1007C0004F935F936F937F938F939F93AF93BF9359
:1007D000EF93FF938AE691E00E947001FF91EF9101
:1007E000BF91AF919F918F917F916F915F914F9149
:1007F0003F912F910F900FBE0F901F9018951F9251
:100800000F920FB60F9211242F938F939F93EF9314
:10081000FF93E0917A01F0917B018081E09180016A
:10082000F091810182FD1BC09081809183018F5FD7
:100830008F7320918401821741F0E0918301F0E0F1
:10084000E659FE4F958F80938301FF91EF919F9121
:100850008F912F910F900FBE0F901F901895808150
:10086000F4CF1F920F920FB60F9211242F933F9344
:100870008F939F93AF93BF9380914E0190914F01BF
:10088000A0915001B091510130914D0123E0230F0F
:100890002D3758F50196A11DB11D20934D01809370
:1008A0004E0190934F01A0935001B093510180915C
:1008B000520190915301A0915401B09155010196BC
:1008C000A11DB11D8093520190935301A093540137
:1008D000B0935501BF91AF919F918F913F912F910F
:1008E0000F900FBE0F901F90189526E8230F0296C9
:1008F000A11DB11DD2CF1F920F920FB60F921124DE
:100900002F933F934F935F936F937F938F939F9317
:10091000AF93BF93EF93FF93E0910201F091030136
:100920000995FF91EF91BF91AF919F918F917F9129
:100930006F915F914F913F912F910F900FBE0F904C
:100940001F9018951F920F920FB60F9211242F939C
:100950003F934F935F936F937F938F939F93AF9347
:10096000BF93EF93FF93E0910001F091010109958E
:10097000FF91EF91BF91AF919F918F917F916F9177
:100980005F914F913F912F910F900FBE0F901F904D
:1009900018951F920F920FB60F9211242F933F9329
:1009A0004F935F936F937F938F939F93AF93BF9377
:1009B000CF93DF93EF93FF9380914C01C0912B0273
:1009C000D0E087FF24C010928500109284008091AF
:1009D0004C018F5F80934C0180914C01082E000CDC
:1009E000990B8C179D0724F480914C018C30C4F135
:1009F0008091840090918500049680349C4908F48D
:100A00007AC08091840090918500049676C0809190
:100A10004C01082E000C990B8C179D07C4F6E09131
:100A20004C018E2FEE0F990BFC01EE0FFF1FE80F0C
:100A3000F91FE95FFD4F808186FFC9CFE0914C012E
:100A40008E2FEE0F990BFC01EE0FFF1FE80FF91F21
:100A5000E95FFD4F808160E08F730E942802B7CF6D
:100A60002091840030918500E0914C018E2FEE0F93
:100A7000990BFC01EE0FFF1FE80FF91FE95FFD4F17
:100A800081819281820F931F9093890080938800C7
:100A9000E0914C018E2FEE0F990BFC01EE0FFF1F22
:100AA000E80FF91FE95FFD4F808186FF11C0E091DB
:100AB0004C018E2FEE0F990BFC01EE0FFF1FE80F7C
:100AC000F91FE95FFD4F808161E08F730E9428026A
:100AD000FF91EF91DF91CF91BF91AF919F918F9156
:100AE0007F916F915F914F913F912F910F900FBE2A
:100AF0000F901F90189580E49CE990938900809353
:100B000088008FEF80934C01E3CF1F920F920FB6B6
:100B10000F9211248F939F938EB590E0909369016B
:100B20008093680181E0809367019F918F910F907E
:100B30000FBE0F901F90189510926D0110926C01CE
:100B400088EE93E0A0E0B0E080936E0190936F0197
:100B5000A0937001B093710189E091E090936B01D3
:100B600080936A0185EC90E0909377018093760101
:100B700084EC90E0909379018093780180EC90E090
:100B800090937B0180937A0181EC90E090937D01BA
:100B900080937C0182EC90E090937F0180937E01B2
:100BA00086EC90E090938101809380011092830104
:100BB00010928401109285011092860180912B027F
:100BC0008C3098F491E0980F90932B0280932C0234
:100BD00090E0FC01EE0FFF1FE80FF91FE95FFD4FEA
:100BE00088EB9BE09283818308958FEF80932C02A2
:100BF0000895789484B5826084BD84B5816084BD95
:100C000085B5826085BD85B5816085BD80916E00AA
:100C1000816080936E0010928100809181008260DB
:100C20008093810080918100816080938100809118
:100C300080008160809380008091B1008460809307
:100C4000B1008091B00081608093B00080917A0003
:100C5000846080937A0080917A00826080937A0029
:100C600080917A00816080937A0080917A00806818
:100C700080937A001092C100E0917A01F0917B019B
:100C800082E08083E0917601F09177011082E0911B
:100C90007801F091790180E1808310928201E091E6
:100CA0007E01F0917F0186E08083E0917C01F091EC
:100CB0007D01808180618083E0917C01F0917D01E4
:100CC000808188608083E0917C01F0917D0180814A
:100CD00080688083E0917C01F0917D0180818F7D2F
:100CE000808381E391E00E945C0361E08CE00E94DC
:100CF00082028CB580648CBD109267018CB58068CF
:100D00008CBD61E084E00E94820261E083E00E9489
:100D1000820260E082E00E94820280912C028C308C
:100D200008F051C061E086E00E94820280912C02AE
:100D3000282F30E0F901EE0FFF1FE20FF31FE95FEC
:100D4000FD4F9081907C9660908310922D021092BE
:100D50002E022CE0622F0E94E908829FB00111242C
:100D600030E020E0AB01420F531FFA01EE0FFF1FEE
:100D7000E40FF51FE95FFD4F908196FD16C02F5FD0
:100D80003F4F2C30310571F781110FC01092800058
:100D900082E0809381001092850010928400B19AC5
:100DA00080916F00826080936F00E0912C028E2F03
:100DB00090E0FC01EE0FFF1FE80FF91FE95FFD4F08
:100DC0008081806480835FE3852E5FE1952E61EBF7
:100DD000A62E60E0B62E03E910E044244A94542C79
:100DE00032014AE6242E43E0342E60E084E00E9483
:100DF00028028AE590E00E948D0083B7816083BF5E
:100E000087E391E00E945C0330920101209200018F
:100E1000809169008C7F80936900E89A83B7817F15
:100E2000846083BF68EE73E080E090E00E94D802A7
:100E30008895EEE7F0E08491E2E9F0E0E490E0EB01
:100E4000F0E0F490FF20F9F081110E94FF01EF2DF6
:100E5000F0E0EE0FFF1FEE58FF4FA591B4918C917B
:100E6000E82289F08BE391E00E945C0380E090E04F
:100E7000892B09F4BACF0E945C01882309F4B1CF11
:100E80000E940000AECFC0906801D09069010D2C87
:100E9000000CEE08FF084AE0C701B601F7FE0DC0DE
:100EA0006DE28AE691E00E94920166277727CB01E6
:100EB0006C197D098E099F094AE00E94180387E199
:100EC00091E00E940B0380916701882309F406C119
:100ED000C0906801D09069010D2C000CEE08FF084D
:100EE0004AE0C701B601F7FE0DC06DE28AE691E067
:100EF0000E94920166277727CB016C197D098E0924
:100F00009F094AE00E94180387E191E00E940B03C9
:100F1000109267018091680190916901019709F031
:100F2000ECC090E080E00E948D0061E084E00E94CF
:100F3000280280910401833031F5E2ECF0E0C491A5
:100F4000C7FDBDC061E083E00E948202CC2309F4AA
:100F500089C0C23009F09AC08091B100887F836057
:100F60008093B10089EF8093B30040925B0150926F
:100F70005C0160925D0170925E0180917000826000
:100F8000809370009CC08F3F09F099C083E08093EC
:100F90000401E2ECF0E0C491CF3F09F490C0C1300D
:100FA00019F150F0C23009F43CC0C7FD88C061E0BF
:100FB00083E00E948202CDCF14BC15BC84B5826050
:100FC00084BD85B5816085BDF5018491E82FF0E091
:100FD000EE0FFF1FEC55FF4F85919491F80184911E
:100FE00080935A01C0E0AECF109280001092810031
:100FF0008091810088608093810080918100816070
:1010000080938100F5018491E82FF0E0EE0FFF1F3F
:10101000EC55FF4F85919491F8018491809359018B
:1010200091CF1092B0001092B1008091B000826018
:101030008093B0008091B10081608093B100F50190
:101040008491E82FF0E0EE0FFF1FEC55FF4F8591E4
:1010500094919093580180935701F8018491809363
:10106000560170CF85B5887F836085BD8CE787BDCD
:101070004092630150926401609265017092660132
:1010800080916E00826080936E0019C0C13069F556
:1010900080918100887F8160809381009092890097
:1010A0008092880040925F015092600160926101DD
:1010B0007092620180916F00826080936F0064EF94
:1010C00071E080E090E00E94D80283E00E94560226
:1010D00064EF71E080E090E00E94D80264EF71E07C
:1010E00080E090E00E94D802A4CEC23021F0C1116D
:1010F000E6CF8FE3BCCF8FE336CF60E084E00E9481
:1011000028028AE590E00E948D00E8CF052E97FB2B
:101110001EF400940E949D0857FD07D00E94B80855
:1011200007FC03D04EF40C949D08509540953095E3
:1011300021953F4F4F4F5F4F089590958095709543
:1011400061957F4F8F4F9F4F08950E94DA08A59FAA
:10115000900DB49F900DA49F800D911D11240895B2
:10116000B7FF0C94A5080E94A508821B930B089555
:10117000A1E21A2EAA1BBB1BFD010DC0AA1FBB1F9B
:10118000EE1FFF1FA217B307E407F50720F0A21B0D
:10119000B30BE40BF50B661F771F881F991F1A947A
:1011A00069F760957095809590959B01AC01BD01A4
:1011B000CF010895A29FB001B39FC001A39F700DFE
:1011C000811D1124911DB29F700D811D1124911D4F
:1011D0000895991B79E004C0991F961708F0961B93
:1011E000881F7A95C9F780950895EE0FFF1F059027
:0A11F000F491E02D0994F894FFCF6C
:1011FA000A030A03FF000000009201F2001F01DF48
:10120A000150012E0142010D0A00534D4F4B45205A
:10121A0044455445435445440021414C45525421C8
:10122A0000534C415645005A7A7A00536D6F6B65EC
:0C123A0020456C696D696E61746564008C
:00000001FF
